:0400000088EF27F06E
:08000800046ED8CF05F0E0CF33
:1000100006F00001E9CF0CF0EACF07F0E1CF08F0DD
:10002000E2CF09F0D9CF0AF0DACF0BF0F3CF12F01C
:10003000F4CF13F0FACF14F000C00EF001C00FF0AF
:1000400002C010F003C011F0F2AA2AEF00F0F2B4DF
:10005000BEEF0DF09DA030EF00F09EB0C3EF0DF0AD
:10006000F2A836EF00F0F2B2B3EF0DF0F0A63CEFDD
:1000700000F0F0B0B7EF0DF0F0A842EF00F0F0B2F2
:10008000BBEF0DF00EC000F00FC001F010C002F089
:1000900011C003F00CC0E9FF07C0EAFF078E08C0DB
:1000A000E1FF09C0E2FF0AC0D9FF0BC0DAFF12C0AE
:1000B000F3FF13C0F4FF14C0FAFF045006C0E0FFC2
:1000C00005C0D8FF1000F2CF0DF0F29EF76AE00FE6
:1000D000F66E000EF7220900F5500DBEF28E1200EA
:1000E000000000000000005F000000030003001497
:1000F0003E143E14242A7F2A12433308666136498F
:100100005522500005030000001C2241000041223E
:100110001C0014083E081408083E0808005030006F
:1001200000080808080800606000002010080402A9
:100130003E5149453E0004027F004261514946223A
:10014000414949361814127F1027454545393E4923
:100150004949320101710907364949493626494959
:10016000493E003636000000563600000814224191
:100170000014141414140041221408020151090639
:100180003E4159555E7E0909097E7F494949363EFF
:10019000414141227F4141413E7F494949417F09D7
:1001A0000909013E4141493A7F0808087F00417F23
:1001B0004100304040403F7F081422417F40404092
:1001C000407F020C027F7F0204087F3E4141413E96
:1001D0007F090909061E2121215E7F090909760090
:1001E000F2CF0DF0F29EF76AFA0FF66E010EF722CB
:1001F0000900F5500DBEF28E120026494949320120
:10020000017F01013F4040403F1F2040201F7F20D1
:1002100010207F41221C22410708700807615149C4
:100220004543007F41000002040810200000417F88
:10023000000402010204404040404000010204006A
:1002400020545454787F4444443838444444443817
:100250004444447F385454541804047E050508541B
:1002600054543C7F0804047800447D4000204044FE
:100270003D007F1028440000417F40007C0478044A
:10028000787C0804047838444444387C14141408F6
:10029000081414147C007C080404485454542004AA
:1002A000043F44443C4040207C1C2040201C3C40F7
:1002B00030403C44281028440C5050503C44645476
:1002C0004C44000836414100007F0000414136089F
:1002D000000201020402F2CF0DF0F29EEE0FF66E64
:1002E000020EF7220900F5500DBEF28E120000003A
:1002F00000000000000000000000000000000000FE
:1003000000000000000000000000000000000000ED
:1003100000000000000000000000000000000000DD
:1003200000000000000000000000000000000000CD
:1003300000000000000000000000000000000000BD
:1003400000000000000000000000000000000000AD
:10035000000000000000000000000000000000009D
:10036000000000000000000000000000000000008D
:10037000000000000000000000000000000000007D
:10038000000000000000000000000000000000006D
:10039000000000000000000000000000000000005D
:1003A000000000000000000000000000000000004D
:1003B000000000000000000000000000000000003D
:1003C000000000000000000000000000000000002D
:1003D000000000000000000000000000000000011C
:1003E000FF00000000000000000000000000000FFF
:1003F000FFE0000000000000000000000000003FDF
:10040000FFF800000000000000000000000000FFF6
:1004100001FE00000000000000000000000001F8E4
:10042000001F00000000000000000000000003E0CA
:1004300000078000000000000000000000000780AE
:100440000003C000000000000000000000000F00DA
:100450000001E000000000000000000000001E009D
:100460000000F000000000000000000000001C0080
:1004700000077000000000000000000000003C00C9
:10048000001E3800000000000000000000003800DE
:100490000078380000000000000000000000380074
:1004A00001F03C00000000000000000000007000AF
:1004B00007C01C00000000000000000000007000E9
:1004C0001F801C00000000000000000000007060A1
:1004D0003F001C00000000000000000000007078D9
:1004E0007E001C0000000000000000000000703CC6
:1004F000FC001C0000000000000000000000701F55
:10050000F8001C0000000000000000000000380F90
:10051000F0003C0000000000000000000000380770
:10052000F000380000000000000000000000380764
:10053000E0003800000000000000000000001C0384
:10054000C0007000000000000000000000001E015C
:100550008000F000000000000000000000000F001C
:100560000001E00000000000000000000000078023
:100570000003C0000000000000000000000003C0F5
:10058000000780000000000000000000000001F0F3
:10059000001F00000000000000000000000000FE3E
:1005A00000FE000000000000000000000000003F0E
:1005B000FFF8000000000000000000000000000F35
:1005C000FFE000000000000000000000000000014B
:1005D000FF0000000000000000000000000000001C
:1005E000000000000000000000000000000000000B
:1005F00000000000000000000000000000000000FB
:1006000000000000000000000000000000000000EA
:1006100000000000000000000000000000000000DA
:1006200000000000000000000000000000000000CA
:1006300000000000000000000000000000000000BA
:1006400000000000000000000000000000000000AA
:10065000000000000000000000000000000000009A
:10066000000000000000000000000000000000008A
:10067000000000000000000000000000000000007A
:10068000000000000000000000000000000000006A
:10069000000000000000000000000000000000005A
:1006A000000000000000000000000000000000004A
:1006B000000000000000000000000000000000003A
:1006C000000000000000000000000000000000002A
:1006D000000000000000000000000000000000001A
:1006E0000000000000000000000000000000F2CF49
:1006F0000DF0F29E060FF66E070EF7220900F55078
:100700000DBEF28E1200FFFFFFFFFFFFFFFFFFFF96
:10071000FFFFFFFFFFFFFFFFFFFFFFFFFFFFFFFFE9
:10072000FFFFFFFFFFFFFFFFE000000000000000F1
:1007300000000007FFFFFFFF800000000000000036
:1007400000000001FFFFFFFF0000000000000000AC
:1007500000000000FFFFFFFF00000000000000009D
:1007600000000000FFFFFFFE00000000000000008E
:10077000000000007FFFFFFE0C19F31B7EF9F37CE5
:10078000631BE1F07FFFFFFE0E3B1B9B198D9B0C53
:10079000639B33187FFFFFFE0E3B1B9B198D9B183D
:1007A000F39B1B187FFFFFFE0F7B1B5B198DF3185C
:1007B000935B1B187FFFFFFE0D5B1B5B198DB33135
:1007C0009B5B1B187FFFFFFE0DDB1B3B198D9B31D5
:1007D000FB3B1B187FFFFFFE0C9B1B3B198D9B6196
:1007E0009B3B33187FFFFFFE0C99F31B18F99B7D91
:1007F0009B1BE1F07FFFFFFE0000000000000000F7
:10080000000000007FFFFFFF00000000000000006C
:1008100000000000FFFFFFFF0000000000000000DC
:1008200000000000FFFFFFFF80000000000000004C
:1008300000000001FFFFFFFFE000000000000000DB
:1008400000000007FFFFFFFFFFFFFFFFFFFFFFFFAD
:10085000FFFFFFFFFFFFFFFFFFFFFFFFFFFFFFFFA8
:10086000FFFFFFFFFFFFF80000000000007FC00057
:1008700000000000003FF0FE00000000001F00002C
:1008800000000000000FE1FF00000000000E00006B
:10089000000000000007C1FF00000000000E7F0004
:1008A000000000000007FFFF0000000000042140DE
:1008B000000000000003FFFF000000000004100023
:1008C000000000000003FFFF00000000000408001B
:1008D000000000000003FFFF000000000004100003
:1008E000000000000003C1FF0000000000042140E0
:1008F000000000000003E0AA00000000000E7F00DE
:10090000000000000007E00000000000000E0000F2
:10091000000000000007F0AA00000000001F000017
:1009200000000000000FFC0000000000007FC0007D
:1009300000000000003FFFFFFFFFFFFFFFFFFFFF82
:10094000FFFFFFFFFFFFFC0000000000007FC00072
:1009500000100000003FF07000000000001F1C00AD
:1009600000100000000FE0F800000000000E7F0003
:10097000001000000007E0F800000000000E5F001B
:100980000010E0000007C0F80000000000047F0035
:100990000011F0000003C0700000000000047F2080
:1009A0000011B1100003C7770000000000041C0014
:1009B000001184800003C2720000000000047F0068
:1009C000001192800003CFFF8000000000047F0030
:1009D000001184800003EFFF80000000000E3E2025
:1009E0000013F1100007E00000000000000E1C00E2
:1009F000001000000007F00000000000001F0000D1
:100A000000100000000FFC0000000000007FC0008C
:100A100000100000003FFFFFFFFFFFFFFFFFFFFF91
:100A2000FFFFFFFFFFFFFC0000000000007FC00091
:100A300000000000003FF03800000000001F36C03A
:100A400000000000000FE21000000000000E7FE038
:100A5000000000000007E31800000000000E7FE027
:100A6000000000000007C7900000000000046020A4
:100A7000000000000003CFD800000000000462A0C6
:100A8000000000000003CFD0000000000004602040
:100A9000000000000003CFD80000000000046AA09E
:100AA000000000000003EDD000000000000E6020F8
:100AB000000000000007E7B800000000000E7FE023
:100AC000000000000007F00000000000001F000010
:100AD00000000000000FFC0000000000007FC000CC
:100AE00000000000003FFFFFFFFFFFFFFFFFFFFFD1
:100AF000FFFFFFFFFFFFFFFFFFFFFFFFFFFFFFFF06
:100B0000FFFFFFFFFFFFF2CF0DF0F29E1E0FF66E0C
:100B10000B0EF7220900F5500DBEF28E1200FFFFFA
:100B2000FFFFFFFFFFFFFFFFFFFFFFFFFFFFFFFFD5
:100B3000FFFFFFFFFFFFFFFFFFFFFFFFFFFFFFFFC5
:100B4000FFFFFFFFFFFFFFFFFFFFFFFFFFFFE000D3
:100B50000000000000000000000000000007E000AE
:100B60000000000000000000000000000007E0009E
:100B70000000000000000000000000000007E0008E
:100B80000000000000000000000000000007E0007E
:100B90000000000000000000000000000007E0006E
:100BA0000000000000000000000000000007E0005E
:100BB0000000000000000000007FFFFFFFFFE000DA
:100BC000000000000000000000800000000FE000B6
:100BD0000000000000000000011F8F000017E0006F
:100BE000000000000000000002001F3FFE27E000A0
:100BF000000000000000000005FFDE400047E004A8
:100C000000000000000000000B7FC087F087E006B6
:100C1000000E673F7D831C0017FFE1080107E00716
:100C200000196C8C61C71C002FFF3E100207E00703
:100C300080186C0C61C736005FFF80218407E007D5
:100C4000801E6F0C7DEF3600BFFCFFC20807E00777
:100C5000C00F678C61AB36017FFE00041007E00F08
:100C6000E003618C61BB7F02FFF3FFF82007E00F18
:100C7000E013698C61936305FFF800004007E00F03
:100C8000F00E670C7D936309FFCFFFF88007E01F2C
:100C9000F800000000000010000000010007E01F45
:100CA000F80000000000003FFFFFFFFE0007E03FEC
:100CB000FC00000000000000000000000007E07FD2
:100CC000FC00000000000000000000000007E0FF42
:100CD000FE00000000000000000000000007E0FF30
:100CE000FE00000000000000000000000007E1FF1F
:100CF000FF00000000000000000000000007E1FF0E
:100D0000FF0F9E3E318F8C1B7E70F87C7C07E1FFCD
:100D1000FF0C31633998CE3B0670CCC66607E1FF05
:100D2000FF0C30633998CE3B0CD8CCC66607E1FF88
:100D3000FF0FB0633598CF7B18D8CCC67C07E0EFA7
:100D4000FE0C30633598CD5B18D8CCC66C07E0E755
:100D5000FE0C30633398CDDB31FCCCC66607E07FF8
:100D6000FC0C31633398CC9B618CCCC66607E03FAA
:100D7000F80F9E3E318F8C9B7F8CF87C6607E01FBE
:100D8000F000000000000000000000000007E00785
:100D9000C000000000000000000000000007E000AC
:100DA0000000000000000000000000000007E0005C
:100DB0000000000000000000000000000007E0004C
:100DC0000000000000000000000000000007E0003C
:100DD0000008000000000000000000000007E00024
:100DE000000C00000000000000E030000007E00000
:100DF000000600000007FF00007063000007E0002D
:100E00000007000000FFFFF00038C7000007E00007
:100E1000000300E0037FFFEC001DCE000007E000B0
:100E2000000383C00E3FFFE3801D8C000007E0003D
:100E30000001C780300FFF80C00F9C000007E0005A
:100E4000E001CF00600DF184200FB8000007E00042
:100E500071C1EF0180000000B807F8006037E000C2
:100E60003B81FE03300000023C07F8003877E000C9
:100E70003F01FE07E0B800067E07F8001C67F98610
:100E80001E01FC068C3E0069FE07F0387EC7FDCED1
:100E90001E48FC0FEB7F0067FF03F01CCFC7ECFC84
:100EA0001E78F81FD37F010FFF83F0078787EC7848
:100EB0001E78F81FFCFF03BFFF83F1E307C7FFFFA6
:100EC000FFFFF83FF63E03BFFFC3FFFFFFFFFFFF3B
:100ED000FFFFF83FFF3C07BFFFC3FFFFFFFFFFFF20
:100EE000FFFFF87FBBF80FB73FE3FFFFFFFFFFFFF8
:100EF000FFFFFFFFFFFFFFFFFFFFFFFFFFFFFFFF02
:100F0000FFFFFFFFFFFFFFFFFFFFFFFFFFFFFFFFF1
:100F1000FFFFFFFFFFFFFFFFFFFFFFFFFFFFF2CF1E
:100F20000DF0F29E360FF66E0F0EF7220900F55007
:100F30000DBEF28E1200FFFFFFFFFFFFFFFFFFFF5E
:100F4000FFFFFFFFFFFFF8000000000000000000AF
:100F500000000000001FE000000000000000000092
:100F6000000000000007C0000000000000000000BA
:100F7000000000000003C0000000000000000000AE
:100F800000000000000380000000000000000000DE
:100F900000000000000180000000000000000000D0
:100FA00000000000000180000000000000000000C0
:100FB00000000000000180000000000000000000B0
:100FC00000000000000180000000000000000000A0
:100FD000000000000003C00000000000000000004E
:100FE000000000000003C00000000000000000003E
:100FF000000000000003E00000000000000000000E
:10100000000000000007F8000000000000000000E1
:1010100000000000003FFFFFFFFFFFFFFFFFFFFF9B
:10102000FFFFFFFFFFFFF80000000000007FC0008F
:1010300000000000003FF0FE00000000001F000064
:1010400000000000000FE1FF00000000000E0000A3
:10105000000000000007C1FF00000000000E3F80FC
:10106000000000000007FFFF00000000000410A0C7
:10107000000000000003FFFF000000000004080063
:10108000000000000003FFFF000000000004040057
:10109000000000000003FFFF000000000004080043
:1010A000000000000003C1FF00000000000410A0C9
:1010B000000000000003E0AA00000000000E3F80D6
:1010C000000000000007E00000000000000E00002B
:1010D000000000000007F0AA00000000001F000050
:1010E00000000000000FFC0000000000007FC000B6
:1010F00000000000003FFFFFFFFFFFFFFFFFFFFFBB
:10110000FFFFFFFFFFFFFC0000000000007FC000AA
:1011100000000000003FF07000000000001F000011
:1011200000000000000FE0F800000000000E6D80DD
:10113000000000000007E0F800000000000EFFC003
:10114000000000000007C0F8000000000004FFC01D
:10115000000000000003C070000000000004C04058
:10116000000000000003C777000000000004C54035
:10117000000000000003C272000000000004C04034
:10118000000000000003CFFF800000000004D540F5
:10119000000000000003EFFF80000000000EC040D0
:1011A000000000000007E00000000000000EFFC08B
:1011B000000000000007F00000000000001F000019
:1011C00000000000000FFC0000000000007FC000D5
:1011D00000000000003FFFFFFFFFFFFFFFFFFFFFDA
:1011E000FFFFFFFFFFFF0000000000000000000005
:1011F00000000000000000000000000000000000EF
:1012000000000000000000000000000000000000DE
:1012100000000000000000000000000000000000CE
:1012200000000000000000000000000000000000BE
:1012300000000000000000000000000000000000AE
:10124000000000000000000000000000000000009E
:10125000000000000000000000000000000000008E
:10126000000000000000000000000000000000007E
:10127000000000000000000000000000000000006E
:10128000000000000000000000000000000000005E
:10129000000000000000000000000000000000004E
:1012A000000000000000000000000000000000003E
:1012B000000000000000000000000000000000002E
:1012C000000000000000000000000000000000001E
:1012D000000000000000000000000000000000000E
:1012E00000000000000000000000000000000000FE
:1012F00000000000000000000000000000000000EE
:1013000000000000000000000000000000000000DD
:1013100000000000000000000000000000000000CD
:1013200000000000000000000000000000000000BD
:10133000000000000000F2CF0DF0F29E4E0FF66E9E
:10134000130EF7220900F5500DBEF28E1200FFFFBA
:10135000FFFFFFFFFFFFFFFFFFFFFFFFFFFFFFFF9D
:10136000FFFFFFFFFFFFFFFFFFFFFFFFFFFFFFFF8D
:10137000FFFFFFFFFFFFFFFFFFFFFFFFFFFFE0009B
:101380000000000000000000000000000007E00076
:101390000000000000000000000000000007E00066
:1013A0000000000000000000000000000007E00056
:1013B0000000000000000000000000000007E00046
:1013C0000000000000060000600000000007E1FFD0
:1013D000FF80780000060000600000000007E1F8D0
:1013E00003C0C40000060000600000000007E1F830
:1013F0003BE0C19BCF3EF3E3E78000000007E1F84C
:101400003BF0C1986C661B366CC000000007E1F829
:101410003BF0DD99EC667B366CC000000007E1F81C
:101420003BF0CD9B6C66DB366CC000000007E1F83A
:101430003BF0CD9B6C66DB366CC000000007E1F82A
:1014400003F07CF9EC3E7B33E78000000007E1FF0E
:10145000FFF0000000000000000000000007E1FFB6
:10146000FFF0000000000000000000000007E1FFA6
:10147000FFB0000000000000000000000007E1FFD6
:10148000FFF0000000000000000000000007E1FF86
:10149000FFF0000000000000000000000007E1C0B5
:1014A0000070000000000000000000000007E1C024
:1014B0000070000000000000000000000007E1CF05
:1014C000FF70F80300000000000000000007E1C00A
:1014D0000070CC0300000000000000000007E1C025
:1014E0000070CDE79E380000000000000007E1CF4B
:1014F000FF70CC3333600000000000000007E1C043
:101500000070CCF33370000007FFFFFFFF87E1C0DE
:101510000070CDB333380000080000000087E1FF01
:10152000FFF0CDB3331B6C0011F8F0000107E000B1
:101530000000F8F19E736C002001F3FFE207E00069
:1015400000000000000000005FFDE4000407E00070
:101550000000000000000000B7FC087F0807E00062
:1015600000000000000000017FFE10801007E00076
:101570000000000000000002FFF3E1002007E0008F
:101580000000000000000005FFF802184007E0001E
:10159000000000000000000BFFCFFC208007E000EF
:1015A0000007AF57AF780017FFE000410007E000E9
:1015B0000004A954A948002FFF3FFF820007E00064
:1015C0000004A954A948005FFF8000040007E00060
:1015D0000004A954A948009FFCFFFF880007E00011
:1015E0000004A954A9480100000000100007E00011
:1015F0000007AF57AF7803FFFFFFFFE00007E000F1
:101600000000000000000000000000000007E000F3
:101610000000000000000000000000000007E000E3
:101620000000000000000000000000000007E000D3
:101630000000000000000000000000000007E000C3
:101640000000000000000000000000000007E000B3
:101650000000000000000000000000000007E000A3
:101660000000000000000000000000000007E00093
:101670000000000000000000000000000007E00083
:101680000000000000000000000000000007E00073
:101690000000000000000000000000000007E00063
:1016A0000000000000000000000000000007E00053
:1016B0000000000000000000000000000007E00043
:1016C0000000000000000000000000000007E00033
:1016D0000000000000000000000000000007E00023
:1016E0000000000000000000000000000007E00013
:1016F0000000000000000000000000000007E00003
:101700000000000000000000000000000007E000F2
:101710000000000000000000000000000007FFFFC4
:10172000FFFFFFFFFFFFFFFFFFFFFFFFFFFFFFFFC9
:10173000FFFFFFFFFFFFFFFFFFFFFFFFFFFFFFFFB9
:10174000FFFFFFFFFFFFFFFFFFFFFFFFFFFFF2CFE6
:101750000DF0F29E660FF66E170EF7220900F55097
:101760000DBEF28E1200FFFFFFFFFFFFFFFFFFFF26
:10177000FFFFFFFFFFFFFFFFFFFFFFFFFFFFFFFF79
:10178000FFFFFFFFFFFFFFFFFFFFFFFFFFFFFFFF69
:10179000FFFFFFFFFFFFE00000000000000000006F
:1017A000000000000007E000000000000000000052
:1017B000000000000007E000000000000000000042
:1017C000000000000007E000000000000000000032
:1017D000000000000007E000000000000000000022
:1017E000000000000007E000000000000000000012
:1017F000000000000007E000000000000000000002
:10180000000000000007E0000000000000000000F1
:10181000000000000007E0000000000000000000E1
:10182000000000000007E0000000000000000000D1
:10183000000000000007E0000000000000000000C1
:10184000000000000007E0000000000000000000B1
:10185000000000000007E0000000000000000000A1
:10186000000000000007E000000000000000000091
:10187000000000000007E004000000000000080075
:10188000000000000007E0060000000000000C005F
:10189000000000000007E00F4000000000001E8074
:1018A000000000000007E00B400000000000168070
:1018B000000000000007E00F4000000000001E8054
:1018C000000000000007E0065000000000000C804F
:1018D000000000000007E000580000000000008049
:1018E000000000000007E0004C0000000000008045
:1018F000000000000007E00046000000000000803B
:10190000000000000007E00043000000000000802D
:10191000000000000007E00041800000000000809F
:10192000000000000007E00040C00000000000BF11
:10193000FE0000000007E0004060000000000080A2
:10194000010000000007E0004030000000000080BF
:1019500002C000000007E0004038000000000080E6
:10196000006000000007E000400C00000000008064
:10197000022000000007E000402600000000008078
:10198000002000000007E00040030000000000808D
:10199000021000000007E0004021800000000080ED
:1019A000001000000007E0004000C00000000080C0
:1019B000021000000007E0004020600000000080EE
:1019C000000800000007E000400030000000008038
:1019D000020800000007E000402010000000008026
:1019E000000800000007E000400000300400008014
:1019F000020060080007E0007FFFFF4336E000FFC1
:101A0000FFFE866DC007E00000000059A4A00000A2
:101A10000000B3494007E0000000004A94A0000025
:101A2000000095294007E00000000033B6E0000008
:101A30000000676DC007E00000000000000000002B
:101A4000000000000007E0000000000000000000AF
:101A5000000000000007E00000000000000000009F
:101A6000000000000007E00000000000000000008F
:101A7000000000000007E00000000000000000007F
:101A8000000000000007E00000000000000000006F
:101A9000000000000007E00000000000000000005F
:101AA000000000000007E00000000000000000004F
:101AB000000000000007E00000000000000000003F
:101AC000000000000007E00000000000000000002F
:101AD000000000000007E00000000000000000001F
:101AE000000000000007E00000000000000000000F
:101AF000000000000007E0000000000000000000FF
:101B0000000000000007E0000000000000000000EE
:101B1000000000000007E0000000000000000000DE
:101B2000000000000007E0000000000000000000CE
:101B3000000000000007FFFFFFFFFFFFFFFFFFFFA8
:101B4000FFFFFFFFFFFFFFFFFFFFFFFFFFFFFFFFA5
:101B5000FFFFFFFFFFFFFFFFFFFFFFFFFFFFFFFF95
:101B6000FFFFFFFFFFFF2782F29242EF00F0278482
:101B7000F09042EF00F0F09242EF00F0010E1726D5
:101B8000F29442EF00F0010E18269E9042EF00F012
:101B9000000E956E939E8A9E0B01485303E0939A24
:101BA0008A8A02D093988A8800D0956A49CB8CFFA4
:101BB00000D0949A8B8A00D0949A8B9A93988A98A2
:101BC000939A8A9A000112000B01276B275107088C
:101BD00040E3939C8A9C486B400E496F0001D8DF1C
:101BE000010E0B01486F400E496F0001D1DF0B0160
:101BF0002751B809296F486B496F0001C9DF0B01F4
:101C00002751B809296F010E486F29CB49FB000104
:101C1000BFDF939C8A8C0B01286B28513F0817E388
:101C20002651FF0DF3CF29FB486B29CB49FB00015F
:101C3000AFDF0B012651FF0DF3CF29FB010E486FDB
:101C400029CB49FB0001A4DF0B01282BE6D7272B6A
:101C5000BDD700011200949A8B9A93988A98939A10
:101C60008A9A939C8A9C0B01486BC00E496F0001B5
:101C70008FDF010E0B01486FC00E496F000188DF36
:101C80000B01486B400E496F000182DF010E0B0112
:101C9000486F400E496F00017BDF0B01486BB80EA7
:101CA000496F000175DF010E0B01486FB80E496FD7
:101CB00000016EDF0B01252D0ED0486B3F0E496FE2
:101CC000000166DF010E0B01486F3F0E496F0001F6
:101CD0005FDF0DD00B01486B3E0E496F000158DFEE
:101CE000010E0B01486F3E0E496F000151DF0B01E1
:101CF000266B000169DF0DEF29F00B0128512A0343
:101D0000F3CF01F0F4CF00F02B03F350002629515C
:101D10002A03F3500020026E00011200FF0E956EA0
:101D2000939E8A8E0B01475303E0939A8A8A02D0CE
:101D300093988A8800D0949A8B8A00D0956883CF34
:101D400048FB949A8B9A93988A98939A8A9A48CB4C
:101D500001F0000112000B01459141513F0803E2DF
:101D6000400E415F4581939C8A9C419F418D000EAE
:101D700045B1010E466F486F41CB49FB000108DFBA
:101D8000000E0B0145B1010E466F4231006E00326C
:101D900000321F0E00160050BF0BB809476F46CB2C
:101DA00048FB496F0001F4DE939C8A8C000E0B0106
:101DB00045B1010E466F476F0001B0DF000E0B0109
:101DC00045B1010E466F476F0001A8DF01C044FB1B
:101DD0000B01432D0FD04251070B466F010E006ED1
:101DE0004651016E04E0D8900036012EFCD7005019
:101DF00044130FD04251070B466F010E006E46513F
:101E0000016E04E0D8900036012EFCD70050FF0A86
:101E10004417939C8A9C000E45B1010E466F486F93
:101E200041CB49FB0001B4DE939C8A8C000E0B0170
:101E300045B1010E466F486F44CB49FB0001A8DE57
:101E400012000B01256B25513F084CE3266B2651F0
:101E50000F0846E3070E276F2751800A7F083EE2EE
:101E6000296B25CB28FB2B6B100E2A6F000145DF59
:101E700002C029FB01C028FB0B0126510124016E81
:101E8000000E0220036E0150F2CF28FBF29E03C029
:101E9000F7FF000183EC05F00B0128BFF28E286FDD
:101EA000070ED8802755296F28CB00F02951016EE5
:101EB00004E0D8900032012EFCD700A00DD02651AE
:101EC000080DF3502725286F416F25CB42FB010EEB
:101ED000436F000140DF0B012707BED7262BB7D782
:101EE000252BB1D7000114EF29F00B0EEA6E2D0E51
:101EF000E96EEF500DE0020E016E006A002EFED773
:101F0000012EFBD7970E006E002EFED7EF2EF3D7D3
:101F10001200080E016E00D08B96949600D000003F
:101F20000B012E378B98D8B09488D8A094989486BB
:101F300082A6FED7012E01D002D00001ECD700D03E
:101F40008B9694960000948800D0000000D000008A
:101F5000948682A6FED7016A00D0000082B8018074
:101F60008B9694968B98949800011200080E0B01A2
:101F70002A6F00C02BFB948800D00000948682A6B4
:101F8000FED782B8D88082A8D890013600D0949627
:101F90008B962A2FF0D7948800D000008B982B5175
:101FA000D8A494980000948682A6FED700D08B9681
:101FB000949600D000008B989498000112000B01B9
:101FC000256B266B948800D0948600D000008B98F7
:101FD000949800D08B969496D00E2E6F000199DFC6
:101FE0000B012E6B000195DF948800D0948600D001
:101FF000000082A6FED78B98949800D08B9694967A
:10200000D10E0B012E6F000184DF006AAFDF01C02B
:1020100025FB94980000948682A6FED700D000D0BD
:102020000000948800D00B01259F948800D09486EE
:1020300000D000008B98949800D08B969496D00E88
:102040002E6F000166DF0B012E6B000162DF25CBD6
:102050002EFB5FDF948800D0948600D0000082A61B
:10206000FED78B98949800D08B969496D00E0B0147
:102070002E6F00014EDF070E0B012E6F000149DFAE
:10208000800E0B012E6F000144DF949800009486AF
:1020900082A6FED700D000D00000948800D025EFA3
:1020A00029F0010E0B013A6F3B6F406B3151335DEC
:1020B000416F415141AF03D0000ED8804155036AB2
:1020C000386F03C039FB3251345D416F415141AF2C
:1020D00003D0000ED8804155036A366F03C037FB2A
:1020E0003151335D01E23A693251345D01E23B69BD
:1020F0003751395D3AE303E13651385D36E3D89024
:10210000363737373851365D006E3951375900C090
:102110003CFB3D6F38513C5D3E6F39513D593F6F3F
:10212000395303E14051385D1FE331CB41FB32CBE2
:1021300042FB35CB43FB00010EDE0B013DAF08D067
:1021400036513C2737513D233A513125316F0AD062
:102150003E513C273F513D233A513125316F3B5190
:102160003225326F402BDCD735D0D890383739370D
:102170003651385D006E3751395900C03CFB3D6F18
:1021800036513C5D3E6F37513D593F6F375303E148
:102190004051365D1FE331CB41FB32CB42FB35CBA7
:1021A00043FB0001D8DD0B013DAF08D038513C277F
:1021B00039513D233B513225326F0AD03E513C27E5
:1021C0003F513D233A513125316F3B513225326F1A
:1021D000402BDCD7000112000B0129532EE02751C0
:1021E000255D05E225CB2CFB27CB2DFB04D027CB8F
:1021F0002CFB25CB2DFB2851265D05E226CB2EFBA3
:1022000028CB2FFB04D028CB2EFB26CB2FFB2C5129
:102210002D5D12E32ECB2BFB2B512F5D0BE32CCB33
:1022200041FB2BCB42FB2ACB43FB000194DD0B018E
:102230002B2BF2D72C2BEBD72ED025CB31FB26CB5B
:1022400032FB27CB33FB26CB34FB2ACB35FB0001FB
:1022500028DF25CB31FB28CB32FB27CB33FB28CB28
:1022600034FB2ACB35FB1DDF25CB31FB26CB32FBE4
:1022700025CB33FB28CB34FB2ACB35FB12DF27CB16
:1022800031FB26CB32FB27CB33FB28CB34FB2ACBCD
:1022900035FB07DF0B010001120028CB03F00B0117
:1022A00027CBE9FF28CBEAFFEF52D8B4D1D028CB17
:1022B00003F027CBE9FF28CBEAFFEF50520827E3D2
:1022C00028CB03F027CBE9FF28CBEAFF200EEF5CF9
:1022D000050DF350036A346F0B0EEA6E2F0EE96E94
:1022E000386B34CB37FBF2CF35FBF29E050E016E17
:1022F000F76A3451000163EC00F00A000900F5CFE1
:10230000EEFF012EFBD70B0135BFF28E35D028CB67
:1023100003F027CBE9FF28CBEAFFEF507E0827E345
:1023200028CB03F027CBE9FF28CBEAFF530EEF5C65
:10233000050DF350036A346F0B0EEA6E2F0EE96E33
:10234000386B34CB37FBF2CF35FBF29E050E016EB6
:10235000F76A34510001F0EC00F00A000900F5CFF3
:10236000EEFF012EFBD70B0135BFF28E05D02F6B90
:10237000306B316B326B336B28CB03F02751E96E36
:1023800003C0EAFFEF500A0A000103E0070A09E070
:102390000CD00B012951070DF350010F262751D006
:1023A00000010B01256B4DD000010B012951050DDA
:1023B000F35025257F0806E2256B2951070DF350C0
:1023C000010F26272B6B2B5104083BE32C6B2C5160
:1023D000060833E3036A2B512F0FE96E0B0E03201F
:1023E000EA6EEFCF34FB34CB00F02C51016E04E0E9
:1023F000D8900032012EFCD700A01DD02D6B2951A2
:102400002D5D19E22E6B29512E5D13E22E512525EB
:10241000346F2C512903F35026252D25356F34CBED
:1024200041FB426F2ACB43FB000195DC0B012E2BB5
:10243000EAD72D2BE4D72C2BCAD72B2B29512527B4
:10244000C2D7272BD8B4282B252B000126D70B0168
:10245000000112002ACB2BFBD8900B012B33780EF6
:102460002B172B31006E00323F0E001600502B252B
:102470002C6F2A510F0B2C25016E0001120094883D
:1024800000D0948600D000008B98949800D08B9652
:102490009496D00E0B012E6F00013BDD0B012E6BCD
:1024A000000137DD948800D0948600D0000082A619
:1024B000FED78B98949800D08B969496D10E0B01F2
:1024C0002E6F000126DD010E006E50DD01507F0BE6
:1024D0000B01256F2A6F0001BDDF01C020F0010E46
:1024E000006E44DD01507F0B0B01256F2A6F000148
:1024F000B1DF01C01FF0006A39DD01C01EF0949801
:102500000000948682A6FED700D000D000009488F8
:1025100000D027901EBA27801E501F0B0B01256F7D
:102520002A6F000197DF01C01EF0948800D09486C6
:1025300000D000008B98949800D08B969496D00E83
:102540000B012E6F0001E5DC030E0B012E6F000165
:10255000E0DC948800D0948600D0000082A6FED7EC
:102560008B98949800D08B969496D10E0B012E6F79
:102570000001CFDC010E006EF9DC01507F0B0B0176
:10258000256F2A6F000166DF01C024F0010E006E86
:10259000EDDC01503F0B0B01256F2A6F00015ADF64
:1025A00001C022F0010E006EE1DC01501F0B0B0197
:1025B000256F2A6F00014EDF01C023F0006AD6DCD0
:1025C00001C025FB01C02AFB45DF01C025F094981E
:1025D0000000948682A6FED700D000D00000948828
:1025E00000D027A005D0500E0B01176F04D00001BA
:1025F000410E0B01176F420E006E002EFED7000039
:10260000000112000B012C51016A2B5D03E22BCB60
:1026100000F00CD0006A080E2D6F2B3700362C51BD
:10262000005CD8B0006E01362D2FF7D700011200E4
:1026300024CBEAFF23CBE9FF0B0132CBEFFFE92AE2
:10264000D8B4EA2AEF6A232BD8B4242B0001120055
:10265000200E0B0126A9300E276F25CB00F025AFE9
:1026600008D0001E002A00C025FB2D0E276F268FE4
:102670002681015025CB2BFB640E2C6F0001C2DF9D
:1026800000C025FB300E01240B01286F25CB2BFB4E
:102690000A0E2C6F0001B6DF300E00240B012A6FEA
:1026A000300E0124296F27CB00F0300E285D04E0A6
:1026B000268326BF268512D026B510D027CB28FB2F
:1026C00026B304D0300E295D04E0268126BF268380
:1026D00005D0D8A42681D8B428CB29FB26B505D0AF
:1026E00026B307D026B109D00CD027CB32FB00018E
:1026F0009FDF28CB32FB00019BDF29CB32FB00019F
:1027000097DF2ACB32FB000193DF12006E0E0B0124
:10271000416F300E426F436B0001ABEC0EF06D0E5B
:102720000B01416F2F0E426F436B0001ABEC0EF0BB
:102730006D0E0B01416F310E426F436B0001ABEC2C
:102740000EF06C0E0B01416F2E0E426F436B0001B9
:10275000ABEC0EF06C0E0B01416F320E426F436B0F
:102760000001ABEC0EF06B0E0B01416F2D0E426FB2
:10277000436B0001ABEC0EF06B0E0B01416F330E9F
:10278000426F436B0001ABEC0EF06A0E0B01416F20
:10279000300E426F436B0001ABEC0EF0690E0B0183
:1027A000416F2F0E426F436B0001ABEC0EF0690ED0
:1027B0000B01416F310E426F436B0001ABEC0EF029
:1027C000680E0B01416F2E0E426F436B0001ABECA4
:1027D0000EF0680E0B01416F320E426F436B000129
:1027E000ABEC0EF0670E0B01416F2D0E426F436B89
:1027F0000001ABEC0EF0670E0B01416F330E426F20
:10280000436B0001ABEC0EF0660E0B01416F300E16
:10281000426F436B0001ABEC0EF0650E0B01416F94
:102820002F0E426F436B0001ABEC0EF0650E0B01F7
:10283000416F310E426F436B0001ABEC0EF0640E42
:102840000B01416F2E0E426F436B0001ABEC0EF09B
:10285000640E0B01416F320E426F436B0001ABEC13
:102860000EF0630E0B01416F2D0E426F436B0001A2
:10287000ABEC0EF0630E0B01416F330E426F436BF6
:102880000001ABEC0EF012002DCB2EFB0B012F6BD9
:102890002E51090805E20A0E2E5F100E2F2703D0D5
:1028A0002E512F2701D0F4D72FCB01F000011200B9
:1028B0000B012C9F1F0E291729CB2DFB0001E4DFF4
:1028C00001C029FB0B01298D2A5302E0298B01D07D
:1028D000299B948800D0948600D000008B9894980F
:1028E00000D08B969496D00E2E6F000189EC0FF0DD
:1028F0000B012E6B000189EC0FF02CCB2DFBC4DFFC
:1029000001C02DFB01C02EFB89EC0FF02BCB2DFB62
:10291000BBDF01C02DFB01C02EFB89EC0FF029CBE2
:102920002EFB89EC0FF028CB2DFBAEDF01C02DFB79
:1029300001C02EFB89EC0FF025CB2DFBA5DF01C0DC
:102940002DFB01C02EFB89EC0FF026CB2DFB9CDF6D
:1029500001C02DFB01C02EFB89EC0FF027CB2DFB16
:1029600093DF01C02DFB01C02EFB89EC0FF0800E20
:102970000B012E6F000189EC0FF0949800009486F3
:1029800082A6FED700D000D00000948800D0E5EFEA
:1029900034F00B01256B25513F084EE3266B265181
:1029A0000F0848E3070E276F2751800A7F0840E28F
:1029B000296B25CB28FB2B6B100E2A6F00017DECB9
:1029C0000EF002C029FB01C028FB0B012651012497
:1029D000016E000E0220036E0150F2CF28FBF29E22
:1029E00003C0F7FF00016BEC01F00B0128BFF28E72
:1029F000286F070ED8802755296F28CB00F0295162
:102A0000016E04E0D8900032012EFCD700A00ED059
:102A10002651080DF3502725286F416F25CB42FB27
:102A2000010E436F0001ABEC0EF00B012707BCD782
:102A3000262BB5D7252BAFD70001FBEF34F0080EBE
:102A4000016E00D08B96949600D000000B012D37BC
:102A50008B98D8B09488D8A09498948682A6FED7F4
:102A6000012E01D002D00001ECD700D08B969496B5
:102A70000000948800D0000000D00000948682A658
:102A8000FED7016A00D0000082B801808B96949630
:102A90008B98949800011200080E0B012D6F00C056
:102AA0002EFB948800D00000948682A6FED782B8C0
:102AB000D88082A8D890013600D094968B962D2F7E
:102AC000F0D7948800D000008B982E51D8A4949809
:102AD0000000948682A6FED700D08B96949600D0F4
:102AE00000008B9894980001A2EF15F028CB2AFBE8
:102AF0000B0127CB2BFB948800D0948600D00000DC
:102B00008B98949800D08B969496A00E2D6F000110
:102B100096DF2ACB2DFB93DF2BCB2DFB90DF948808
:102B200000D0948600D0000082A6FED78B9894989F
:102B300000D08B969496A10E0B012D6F00017FDFC4
:102B4000006AAAD701C029FB94980000948682A647
:102B5000FED700D000D00000948800D00B0129CB14
:102B600001F0000112008E0E006E26CB01F025CB85
:102B700002F0036A015209E102C001F0026A080E84
:102B8000005E015202E1006A08D0D89001BE04D074
:102B9000023601360006F9D7019E120026CB2DFB26
:102BA0000B012A512D1B2DAF05D0D894D89026BFEC
:102BB000D8802FD026CB2DFB29CB2EFB25512E5F85
:102BC00006E02DAF26D0D850010AD86E22D02ACBED
:102BD0002EFB26512E5F06E02DAF1BD0D850010AE8
:102BE000D86E17D02BCB2EFB27512E5F06E02DAFD2
:102BF00010D0D850010AD86E0CD02CCB2EFB285107
:102C00002E5F06E02DAF05D0D850010AD86E01D056
:102C1000D89000011200EACF2DFBE9CF2CFB0B016D
:102C20002639F009286F2827E20F296F320F2B6F02
:102C300026510F0B292729272B27E90F2A6F2A272F
:102C40002A2725390F0B2A272B272A372B372B1F0B
:102C50002B3725510F0B2B272837070E276F0A0E0E
:102C60002A072B27FDE329072A27FDE32807292721
:102C7000FDE327072827FDE30B0EEA6E270EE96E1A
:102C8000070E2C152C9DE926000EEA22E9502B0890
:102C900004E1EA500B0801E12C8DEF50006E08E1D1
:102CA0002CBD06D02CB915D02CB702D0200E03D0E5
:102CB0002C872C99300E0026EACF26FBE9CF25FB86
:102CC00000C032FB0001B4DC26CBEAFF25CBE9FFD4
:102CD0000B01EE502CADDAD70001120029CB2BFBF3
:102CE0000B0128CB2CFB948800D0948600D00000E8
:102CF0008B98949800D08B969496A00E2D6F00011F
:102D00009EDE2BCB2DFB9BDE2CCB2DFB98DE2ACB26
:102D10002DFB95DE94980000948682A6FED700D005
:102D200000D00000948800D00B0E0B012D6F000125
:102D300075EC0FF012000B01256B25513F084EE397
:102D4000266B26510F0848E3070E276F2751800A8C
:102D50007F0840E2296B25CB28FB2B6B100E2A6FD6
:102D600000017DEC0EF002C029FB01C028FB0B0125
:102D700026510124016E000E0220036E0150F2CF95
:102D800028FBF29E03C0F7FF00018FEC07F00B0158
:102D900028BFF28E286F070ED8802755296F28CBC1
:102DA00000F02951016E04E0D8900032012EFCD7CA
:102DB00000A00ED02651080DF3502725286F416F33
:102DC00025CB42FB010E436F0001ABEC0EF00B0173
:102DD0002707BCD7262BB5D7252BAFD7000135EF5A
:102DE0001CF0000E27B6010E0B01256F6E0E416F11
:102DF000350E426F25CB43FB0001ABEC0EF0000E0D
:102E000027B6010E0B01256F6D0E416F340E426F18
:102E100025CB43FB0001ABEC0EF0000E27B6010EF4
:102E20000B01256F6D0E416F360E426F25CB43FBB4
:102E30000001ABEC0EF0000E27B6010E0B01256F62
:102E40006C0E416F330E426F25CB43FB0001ABECA0
:102E50000EF0000E27B6010E0B01256F6C0E416FB0
:102E6000370E426F25CB43FB0001ABEC0EF06B0E2F
:102E70000B01416F320E426F436B0001ABEC0EF061
:102E80006B0E0B01416F380E426F436B0001ABECD0
:102E90000EF06A0E0B01416F350E426F436B00015D
:102EA000ABEC0EF0690E0B01416F340E426F436BB9
:102EB0000001ABEC0EF0690E0B01416F360E426F54
:102EC000436B0001ABEC0EF0680E0B01416F330E4B
:102ED000426F436B0001ABEC0EF0680E0B01416FCB
:102EE000370E426F436B0001ABEC0EF0670E0B0127
:102EF000416F320E426F436B0001ABEC0EF0670E78
:102F00000B01416F380E426F436B0001ABEC0EF0CA
:102F1000660E0B01416F350E426F436B0001ABEC47
:102F20000EF0650E0B01416F340E426F436B0001D2
:102F3000ABEC0EF0650E0B01416F360E426F436B2A
:102F40000001ABEC0EF0640E0B01416F330E426FCB
:102F5000436B0001ABEC0EF0640E0B01416F370EBA
:102F6000426F436B0001ABEC0EF0630E0B01416F3F
:102F7000320E426F436B0001ABEC0EF0630E0B019F
:102F8000416F380E426F436B0001ABEC0EF00F0E39
:102F90000B01416F350E426F436B0001ABEC0EF03D
:102FA000100E0B01416F340E426F436B0001ABEC0E
:102FB0000EF0100E0B01416F360E426F436B000195
:102FC000ABEC0EF0110E0B01416F330E426F436BF1
:102FD0000001ABEC0EF0110E0B01416F370E426F8A
:102FE000436B0001ABEC0EF0120E0B01416F320E81
:102FF000426F436B0001ABEC0EF0120E0B01416F00
:10300000380E426F436B0001ABEC0EF0130E0B0158
:10301000416F350E426F436B0001ABEC0EF0140EA6
:103020000B01416F340E426F436B0001ABEC0EF0AD
:10303000140E0B01416F360E426F436B0001ABEC77
:103040000EF0150E0B01416F330E426F436B000102
:10305000ABEC0EF0150E0B01416F370E426F436B58
:103060000001ABEC0EF0160E0B01416F320E426FF9
:10307000436B0001ABEC0EF0160E0B01416F380EE6
:10308000426F436B0001ABEC0EF0170E0B01416F6A
:10309000350E426F436B0001ABEC0EF0180E0B01C6
:1030A000416F340E426F436B0001ABEC0EF0180E13
:1030B0000B01416F360E426F436B0001ABEC0EF01B
:1030C000190E0B01416F330E426F436B0001ABECE5
:1030D0000EF0190E0B01416F370E426F436B00016A
:1030E000ABEC0EF01A0E0B01416F320E426F436BC8
:1030F0000001ABEC0EF01A0E0B01416F380E426F5F
:10310000436B0001ABEC0EF012000B012951D8B457
:10311000A5D0356F2D51D8B4A1D0355F05E37F0E12
:103120003527D8B09BD006D0810E355FD8A096D079
:10313000D8B494D035CB00F0016A026A036A346BCC
:103140002ACB33FB338F2BCB32FB2CCB31FB190E2D
:10315000356F3051315F0DE2010E325F0AE2335FAD
:1031600008E2345F06E2342B332B322B3051312707
:1031700028D02F51325F12E2010E335F0FE2345F2D
:103180000DE2342B332B2F5132273051312719E3E5
:10319000322B17E1332B15E1342B13D02E5180093C
:1031A000335F0EE2010E345F0BE2342B2E518009A7
:1031B00033272F513227E9E3332BE7E1342BE5D7CF
:1031C0000380352F01D00BD0D890313732373337C9
:1031D0003437D8900336023601363637BAD736A19F
:1031E00006D0D890013202320332363302D00006C4
:1031F00035E036BF1ED0D8903137323733373437C9
:103200003051315F07E2010E325F04E2335F02E2C8
:10321000345F1AE32F51325F05E2010E335F02E2A1
:10322000345F12E32E518009335F03E2010E345FF5
:103230000BE3032A09E1022A07E1012A05E1002A3A
:103240000DE00132023203322ACB35FB2E51351B01
:1032500035AF02D0018E06D0019E04D0006A016A0B
:10326000026A036A00011200800ED8A202D00B018C
:103270002A1B0B012F6B306B26CB2EFB2A512E1BEA
:103280002551D8B4DFD02D6F006E2951D8B4E3D0CA
:103290002D5FD8B483D03EE32ACB33FB338F2BCBC7
:1032A00032FB2CCB31FB306BD8903333323331339C
:1032B00030332D2FF8D72EAF03D02F81E0D02F91B0
:1032C0002D912F890B0EEA6E280EE96EEBD02F9907
:1032D0002EBF0AD02DA113D03333323331333033E4
:1032E000002AD8B4C7D00BD033BF0CD0D890303719
:1032F0003137323733370006D8B4BCD0F5D72F8DED
:103300006DD02F9D26CB2EFB26AF02D0338FABD0B6
:10331000339FA9D029CB2DFB29CB00F025512D5F60
:1033200026CB33FB338F27CB32FB28CB31FB306BE3
:10333000D89033333233313330332D2FF8D72EAF8B
:1033400003D02F839CD02F932D912F8B0B0EEA6EE1
:103350002C0EE96EA7D02F9B2EBF0AD02DA113D023
:103360003333323331333033002AD8B483D00BD0E7
:1033700033BF0CD0D890303731373237333700066F
:10338000D8B478D0F5D72F8F29D02F9F2ACB2EFBFA
:103390002AAF02D0338F67D0339F65D02ACB33FB5F
:1033A000338F2BCB32FB2CCB31FB2EAF04D0339F92
:1033B0002F8565D02F95306B2D910B0EEA6E280E60
:1033C000E96E70D02EBF1CD026CB2EFB2DA106D0CF
:1033D0003333323331333033002A4CE030AF0BD04B
:1033E000312B09E1322B07E1332B05E13333323343
:1033F0003133002A3FE02FBD84D72FBFC6D71CD062
:10340000800E331B33AF04D03AD02ACB2EFB0AD028
:1034100026CB2EFB335306E1325304E1315302E154
:10342000006A21D033BF08D0D890303731373237D7
:103430003337002EF7D71ED02EAF02D0338F13D0E4
:10344000339F11D029CB00F02ACB33FB2BCB32FB9F
:103450002CCB31FB08D025CB00F026CB33FB27CB80
:1034600032FB28CB31FB33CB01F032CB02F031CB36
:1034700003F034D0006A016A026A036A2FD0306B0D
:10348000311F321F331F301F302B05E1312B03E179
:10349000322B01E1332B2FB112D72FB354D72FB5D5
:1034A00089D7B3D7EF50312705E3322B03E1332B14
:1034B000D8B42D81ED52EF50322703E3332BD8B42B
:1034C0002D81ED52EF50EFBE01D0800A3327D8B0E6
:1034D0002D812FB9FCD62FBB3ED774D70001120027
:1034E0000B013251D8B471D0006E3651D8B46DD0C2
:1034F000002604E3810E002668E204D07F0E005E01
:1035000064E363E033CB3AFB37513A1B338F378F99
:1035100035513903F4CF3CFB34513803F4CF03F079
:10352000F3CF3BFB3903F3503C27F4503B23000E11
:10353000032235513803F3503C27F4503B23000E4F
:10354000026A0322022233513903F3503B27F4501D
:103550000322000E022233513803F3500326F450A5
:103560000222000E016A012235513703F3503B2736
:10357000F4500322000E0222012234513703F3508B
:103580000326F4500222000E012233513703F35078
:103590000226F4500122002A01BE05D03B37033633
:1035A000023601360006000E3BAF0AD0032A022283
:1035B0000122015005E1025003E1035001E1002A1C
:1035C0003ABF018E3AAF019E04D0006A016A026AD6
:1035D000036A000112000B013251B608326F036A10
:1035E00033CB36FB338FD890333334333533033218
:1035F000023201320032322FF6D736AF0BD0001E26
:10360000011E021E031E002AD8B4012AD8B4022AC1
:10361000D8B4032A000182EF1BF0D8B204D00B0EFD
:10362000EA6E3A0EE96E006A016A026A036A0B01E9
:103630003A6B3B6B3C6B3D6B39513811371136118E
:103640002CE0200E3E6FD890323733373437353781
:103650003A373B373C373D3739513D5D08E138510A
:103660003C5D05E137513B5D02E136513A5D0FE3C8
:1036700036513A5F3751D8A0373D3B5F3851D8A01B
:10368000383D3C5F3951D8A0393D3D5FD880003688
:103690000136023603363E2FD6D73ACBEFFF3BCB6F
:1036A000ECFF3CCBECFF3DCBECFF00011200E950FE
:1036B0000B012A6F29512C6F1BE028CB35FB27CB40
:1036C00034FB26CB33FB25CB32FB396B386B200E1A
:1036D000376F820E366F000103DF03C028FB02C084
:1036E00027FB01C026FB00C025FB0B012C2FE5D7D3
:1036F00028CB35FB27CB34FB26CB33FB25CB32FB4A
:10370000000169D703C028FB02C027FB01C026FBCC
:1037100000C025FB0B0128AF0DD02A072A8B251FDF
:10372000261F271F281F252BD8B4262BD8B4272BBC
:10373000D8B4282B3B0E316F9A0E306FCA0E2F6F04
:103740002E6B0A0E2C6F2951D8B42A2BD8820B0E5F
:10375000EA6E250EE96E28CB35FB27CB34FB26CB52
:1037600033FB25CB32FB31CB39FB30CB38FB2FCBB6
:1037700037FB2ECB36FB000150DF0150005213E126
:103780000B0129292C5DD8A402D000010CD02A51AC
:103790000DE00F0B2C5D01E044E22ABF42D02ABDB0
:1037A00005D0200E37D0200E0B012A172AAB0FD0E0
:1037B0002A9B2951D8A42A0700502A6F2D0E326F58
:1037C000000118EC13F00B012A51006E2A6B2951ED
:1037D0002C5D0DE100502A6F2E0E326F000118ECA7
:1037E00013F00B012A51006E200E2A17000E300E26
:1037F0002AAB10D02A9B2951D8A42A0700502A6F3F
:103800002D0E326F000118EC13F00B012A51006EDF
:103810002A6B300E002600C032FB000118EC13F0BA
:103820000B01D89231CB35FB30CB34FB2FCB33FBA4
:103830002ECB32FB396B386B376B0A0E366F0001BB
:10384000ECDE03C031FB02C030FB01C02FFB00C027
:103850002EFB0B012C2F7AD7000112000B01266BD7
:103860000001E4EC0DF09BEF16F0050E0B01256F47
:10387000040E266F286F800E276F010E296F2A6FA6
:1038800000014DEC11F00B01256B2C0E266F290E5B
:10389000276F3F0E286F010E296F2A6F0001ECEC95
:1038A00010F02B0E0B01256F2C0E266F530E276F79
:1038B0003F0E286F010E296F2A6F0001ECEC10F00B
:1038C000550E0B01256F2C0E266F7F0E276F3F0EB6
:1038D000286F010E296F2A6F0001ECEC10F0310EF9
:1038E0000B01256F320E266F050E286FE00E276F35
:1038F000010E296F2A6B00014DEC11F0F1EC16F06E
:103900000B01166B156B6BD016BF09D0165303E174
:103910001551000804E20001F1EC16F00B01C2821F
:10392000C2B2FED7C4CF26F0320E2D6F000175EC67
:103930000FF02650F0080CE2C282C2B2FED7C4CF0C
:1039400026F0320E0B012D6F000175EC0FF0F1D750
:103950002650C30805E22650E00802E32788C1D3B9
:10396000265073081DE2265086081AE30B0116BF85
:1039700005D0165306E11551000803E3166B156BCD
:103980002ED015510A0807E1165305E10A0E155FFE
:10399000000E165B04D0090E155F000E165B0001C9
:1039A0002650A50815E22650B80812E30B0116BFF1
:1039B0000AD0165303E11551090805E2090E15272F
:1039C000000E162304D00A0E1527000E1623000140
:1039D0000B011553D8A458D11653D8A455D1256B33
:1039E0002C0E266F290E276F3F0E286F010E296FB0
:1039F0002A6F0001ECEC10F00B01286B020E276F10
:103A0000000176EC15F00B01266B01C025FB0001CF
:103A1000B3EC15F003C00FFB02C00EFB01C00DFBA1
:103A200000C00CFB0FCB03FB0ECB02FB0DCB01FB4D
:103A30000CCB00FB0B01286B030E276F000176EC0B
:103A400015F00B01266B01C025FB0001B3EC15F04E
:103A500003C00FFB02C00EFB01C00DFB00C00CFB3E
:103A60000FCB2CFB0ECB2BFB0DCB2AFB0CCB29FB5E
:103A70000B01306B2F6B480E2E6F850E2D6F0001E2
:103A800085EC18F0D89203CB28FB02CB27FB01CBA7
:103A900026FB00CB25FB03C02CFB02C02BFB01C087
:103AA0002AFB00C029FB34EC19F003C003FB02C061
:103AB00002FB01C001FB00C000FB0B01286B040EE0
:103AC000276F000176EC15F00B01266B01C025FB7A
:103AD0000001B3EC15F003C00FFB02C00EFB01C0E8
:103AE0000DFB00C00CFB0FCB07FB0ECB06FB0DCB79
:103AF00005FB0CCB04FB0B01286B050E276F0001A7
:103B000076EC15F00B01266B01C025FB0001B3EC30
:103B100015F003C00FFB02C00EFB01C00DFB00C07F
:103B20000CFB0FCB2CFB0ECB2BFB0DCB2AFB0CCBBA
:103B300029FB0B01306B2F6B480E2E6F850E2D6FFE
:103B4000000185EC18F0D89207CB28FB06CB27FBA9
:103B500005CB26FB04CB25FB03C02CFB02C02BFBB3
:103B600001C02AFB00C029FB34EC19F003C007FB9D
:103B700002C006FB01C005FB00C004FB0B01286B63
:103B8000060E276F000176EC15F001C013FB0B0148
:103B9000286B070E276F000176EC15F001C014FBAF
:103BA0000B01286B080E276F000176EC15F001C0A1
:103BB00010FB0B01286B090E276F000176EC15F046
:103BC00001C011FB0B01286B0A0E276F000176EC78
:103BD00015F001C012FBD89203CB28FB02CB27FBC8
:103BE00001CB26FB00CB25FB07CB2CFB06CB2BFB0D
:103BF00005CB2AFB04CB29FB34EC19F003C00BFBEB
:103C000002C00AFB01C009FB00C008FB4C0E0B01FF
:103C1000256F200E266F7A0E276F270E286F010E54
:103C2000296F2A6B0001ECEC10F0130E0B01256FCD
:103C3000120E266F390E276F1A0E286F010E296F8C
:103C40002A6B0001ECEC10F0130E0B01256F200E17
:103C5000266F390E276F270E286F010E296F2A6BEA
:103C60000001ECEC10F04C0E0B01256F120E266FCC
:103C70007A0E276F190E286F010E296F2A6B00012B
:103C8000ECEC10F07CD10B01010E1525256F000E18
:103C90001621266F286F25CB27FB000176EC15F047
:103CA0000B01266B01C025FB0001B3EC15F003C02E
:103CB0000FFB02C00EFB01C00DFB00C00CFB0FCBC5
:103CC00003FB0ECB02FB0DCB01FB0CCB00FB020E6A
:103CD0000B011525256F000E1621266F286F25CBA9
:103CE00027FB000176EC15F00B01266B01C025FBCC
:103CF0000001B3EC15F003C00FFB02C00EFB01C0C6
:103D00000DFB00C00CFB0FCB2CFB0ECB2BFB0DCB0C
:103D10002AFB0CCB29FB0B01306B2F6B480E2E6F4F
:103D2000850E2D6F000185EC18F0D89203CB28FB8F
:103D300002CB27FB01CB26FB00CB25FB03C02CFBD2
:103D400002C02BFB01C02AFB00C029FB34EC19F098
:103D500003C003FB02C002FB01C001FB00C000FB6B
:103D6000030E0B011525256F000E1621266F286FF7
:103D700025CB27FB000176EC15F00B01266B01C06B
:103D800025FB0001B3EC15F003C00FFB02C00EFBD6
:103D900001C00DFB00C00CFB0FCB07FB0ECB06FBDD
:103DA0000DCB05FB0CCB04FB040E0B011525256F79
:103DB000000E1621266F286F25CB27FB000176EC1D
:103DC00015F00B01266B01C025FB0001B3EC15F0CB
:103DD00003C00FFB02C00EFB01C00DFB00C00CFBBB
:103DE0000FCB2CFB0ECB2BFB0DCB2AFB0CCB29FBDB
:103DF0000B01306B2F6B480E2E6F850E2D6F00015F
:103E000085EC18F0D89207CB28FB06CB27FB05CB17
:103E100026FB04CB25FB03C02CFB02C02BFB01C0FF
:103E20002AFB00C029FB34EC19F003C007FB02C0D9
:103E300006FB01C005FB00C004FB050E0B011525A8
:103E4000256F000E1621266F286F25CB27FB00015A
:103E500076EC15F001C013FB060E0B011525256F3E
:103E6000000E1621266F286F25CB27FB000176EC6C
:103E700015F001C014FB070E0B011525256F000E70
:103E80001621266F286F25CB27FB000176EC15F055
:103E900001C010FB080E0B011525256F000E162121
:103EA000266F286F25CB27FB000176EC15F001C0AB
:103EB00011FB090E0B011525256F000E1621266F2B
:103EC000286F25CB27FB000176EC15F001C012FB13
:103ED000D89203CB28FB02CB27FB01CB26FB00CBE0
:103EE00025FB07CB2CFB06CB2BFB05CB2AFB04CBFE
:103EF00029FB34EC19F003C00BFB02C00AFB01C024
:103F000009FB00C008FB4C0E0B01256F200E266F2D
:103F10007A0E276F270E286F010E296F2A6B00017A
:103F2000ECEC10F0130E0B01256F120E266F390EFC
:103F3000276F1A0E286F010E296F2A6B0001ECEC17
:103F400010F0130E0B01256F200E266F390E276F10
:103F5000270E286F010E296F2A6B0001ECEC10F080
:103F60004C0E0B01256F120E266F7A0E276F190E5D
:103F7000286F010E296F2A6B0001ECEC10F0050E82
:103F80000B01246FA00E236F10CB25FB010E266FB3
:103F9000000128EC13F02F0E0B01326F000118EC1A
:103FA00013F011CB25FB010E0B01266F000128EC4D
:103FB00013F02F0E0B01326F000118EC13F012CB2F
:103FC00025FB010E0B01266F000128EC13F04C0EAF
:103FD0000B01256F200E266F050E286FA00E276F90
:103FE000010E296F2A6F00014DEC11F0060E0B0136
:103FF000246F236B890EE96E03CB28FB02CB27FBD2
:1040000001CB26FB00CB25FB020E296F000157ECEC
:104010001BF04C0E0B01326F000118EC13F0130E65
:104020000B01256F120E266F060E286F276B010EEF
:10403000296F2A6F00014DEC11F0060E0B01246F61
:10404000400E236F890EE96E07CB28FB06CB27FBBA
:1040500005CB26FB04CB25FB020E296F000157EC94
:104060001BF04C0E0B01326F000118EC13F0130E15
:104070000B01256F200E266F060E286F400E276F4E
:10408000010E296F2A6F00014DEC11F0060E0B0195
:10409000246F800E236F890EE96E0BCB28FB0ACBB1
:1040A00027FB09CB26FB08CB25FB020E296F00015D
:1040B00057EC1BF04C0E0B01326F000118EC13F0A3
:1040C0004C0E0B01256F120E266F060E286F800E08
:1040D000276F010E296F2A6F00014DEC11F00B01C3
:1040E00013D40001FEEF3AF00B01256B25513F0878
:1040F0004EE3266B26510F0848E3070E276F275122
:10410000800A7F0840E2296B25CB28FB2B6B100E21
:104110002A6F00017DEC0EF002C029FB01C028FBD4
:104120000B0126510124016E000E0220036E015086
:10413000F2CF28FBF29E03C0F7FF0001A7EC0BF0C3
:104140000B0128BFF28E286F070ED8802755296FE4
:1041500028CB00F02951016E04E0D8900032012EE6
:10416000FCD700A00ED02651080DF3502725286F4C
:10417000416F25CB42FB010E436F0001ABEC0EF00B
:104180000B012707BCD7262BB5D7252BAFD70001AE
:1041900037EF3CF00B01256B25513F084EE3266BB2
:1041A00026510F0848E3070E276F2751800A7F0822
:1041B00040E2296B25CB28FB2B6B100E2A6F0001E8
:1041C0007DEC0EF002C029FB01C028FB0B0126513B
:1041D0000124016E000E0220036E0150F2CF28FB75
:1041E000F29E03C0F7FF000177EC03F00B0128BF3C
:1041F000F28E286F070ED8802755296F28CB00F044
:104200002951016E04E0D8900032012EFCD700A0A5
:104210000ED02651080DF3502725286F416F25CB6E
:1042200042FB010E436F0001ABEC0EF00B012707C0
:10423000BCD7262BB5D7252BAFD700011200016ABA
:10424000026A006A036A0B012A5102E1295118E04F
:10425000100E2B6FD89027372837003603362A5197
:10426000035C02E12951005C07E32951005ED8A0FC
:1042700003062A51035ED880013602362B2FEAD777
:10428000000112008E0E006E0B012751005E28CB3C
:1042900002F029CB01F0028E005209E0D8900252C0
:1042A00002E1015204E002320132002EF7D728AFBA
:1042B00005D0011E021E012AD8B4022A00011200F4
:1042C000090E0B01285F0CE30B0EEA6E280EE96E57
:1042D000D890EF32EF5004E001D00000EF2EFDD770
:1042E000000112001652D8A4B2D037C029FB36C044
:1042F00028FB0B012B6B640E2A6F00017DEC0EF086
:1043000002C026FB01C025FB02C028FB01C027FB21
:1043100039C02AFB38C029FB92DF02C035F001C04A
:1043200034F035C026FB34C025FBB3EC15F003C0D8
:1043300035FB02C034FB01C033FB00C032FB990ED9
:104340000B01396FBB0E386F160E376F760E366F56
:10435000000170EC1AF003C028FB02C027FB01C06B
:1043600026FB00C025FB03C02CFB02C02BFB01C0B9
:104370002AFB00C029FB0B01306B2F6B480E2E6F00
:10438000850E2D6F000185EC18F003C047F002C0C8
:1043900046F001C045F000C044F047C035FB46C0C0
:1043A00034FB45C033FB44C032FB0B01396B240E98
:1043B000386F740E376F920E366F000170EC1AF082
:1043C00003C02AFB02C029FB01C028FB00C027FB59
:1043D00059DF02C033F001C032F0296A286A29523D
:1043E00035E12850130832E393968A9600D09396CD
:1043F0008A8633C025FB0B01252B2507D8B405D0B1
:10440000286900015DDF0B01F8D732C028FB0001ED
:1044100057DF93968A96200ED88032540B01256F71
:104420004E0E3354266F26CB27FB272B2707D8B4F5
:1044300005D02869000144DF0B01F8D725CB28FB04
:1044400000013EDF282AD8B4292AC9D7B9D0162CB2
:10445000B7D037C029FB36C028FB0B012B6B640E8D
:104460002A6F00017DEC0EF002C026FB01C025FB87
:1044700002C028FB01C027FB39C02AFB38C029FB3A
:10448000DEDE02C035F001C034F0355204E13450B4
:104490003108D8B095D035C026FB34C025FBB3EC2D
:1044A00015F003C035FB02C034FB01C033FB00C074
:1044B00032FB990E0B01396FBB0E386F160E376F3A
:1044C000760E366F000170EC1AF003C028FB02C0B4
:1044D00027FB01C026FB00C025FB03C02CFB02C04C
:1044E0002BFB01C02AFB00C029FB0B01306B2F6B9B
:1044F000480E2E6F850E2D6F000185EC18F003C05D
:1045000047F002C046F001C045F000C044F047C08B
:1045100035FB46C034FB45C033FB44C032FB0B01C6
:10452000396B240E386F740E376F920E366F0001A0
:1045300070EC1AF003C02AFB02C029FB01C028FB63
:1045400000C027FB9FDE02C033F001C032F0296AB1
:10455000286A295235E12850130832E393968A9647
:1045600000D093968A8633C025FB0B01252B2507A7
:10457000D8B405D028690001A3DE0B01F8D732C0FA
:1045800028FB00019DDE93968A96200ED880325437
:104590000B01256F4E0E3354266F26CB27FB272B9E
:1045A0002707D8B405D0286900018ADE0B01F8D7A7
:1045B00025CB28FB000184DE282AD8B4292AC9D7B4
:1045C00011EF3FF0006A016A0B012E51D8902FB114
:1045D0000026003201322FB30026003201322FB5FF
:1045E0000026003201322FB70026003201322FB9E7
:1045F0000026003201322FBB0026003201322FBDCF
:104600000026003201322FBF0026003201320001A5
:1046100012000B012A6B27CB2BFB010ED8802755EC
:104620002C6F285365E02A51255D2D6F2B512625CF
:104630002E6F2A5125252F6F2B512625306F2DCB1C
:1046400031FB2ECB32FB2FCB33FB346F29CB35FB29
:10465000000151EC10F00B012A51255D2D6F2B51FB
:10466000265D2E6F2A5125252F6F2B51265D306F29
:104670002DCB31FB2ECB32FB2FCB33FB346F29CB31
:1046800035FB000151EC10F00B012B51255D2D6F16
:104690002A5126252E6F2B5125252F6F2A5126258D
:1046A000306F2DCB31FB2ECB32FB2FCB33FB346F56
:1046B00029CB35FB000151EC10F00B012B51255D8E
:1046C0002D6F2A51265D2E6F2B5125252F6F2A51D4
:1046D000265D306F2DCB31FB2ECB32FB2FCB33FB46
:1046E000346F29CB35FB000151EC10F078D00B0171
:1046F00025512A252D6F26512B252E6F2DCB41FBC1
:10470000426F29CB43FB0001ABEC0EF00B012551AE
:104710002B252D6F26512A252E6F2DCB41FB426F65
:1047200029CB43FB0001ABEC0EF00B012A51255DB8
:104730002D6F26512B252E6F2DCB41FB426F29CBA0
:1047400043FB0001ABEC0EF00B012B51255D2D6FEF
:1047500026512A252E6F2DCB41FB426F29CB43FBDF
:104760000001ABEC0EF00B0125512B252D6F2A51CA
:10477000265D2E6F2DCB41FB426F29CB43FB000101
:10478000ABEC0EF00B0125512A252D6F2B51265D28
:104790002E6F2DCB41FB426F29CB43FB0001ABECCD
:1047A0000EF00B012A51255D2D6F2B51265D2E6FCA
:1047B0002DCB41FB426F29CB43FB0001ABEC0EF04C
:1047C0000B012B51255D2D6F2A51265D2E6F2DCBB0
:1047D00041FB426F29CB43FB0001ABEC0EF00B0118
:1047E0002CAF0ED02A512A2B2D6F020E2E6F2DCBFF
:1047F0002FFB0001E7DE0150030F0B012C2711D026
:104800002A512A2B2D6F2B512B072D5D2D6F020E58
:104810002E6F2DCB2FFB0001D5DE0150050F0B01B4
:104820002C272A51800A006E2B51800A005CD8B4D4
:10483000F8D6D8A0F6D6000112000B01256B255141
:104840003F084EE3266B26510F0848E3070E276FFB
:104850002751800A7F0840E2296B25CB28FB2B6B70
:10486000100E2A6F00017DEC0EF002C029FB01C082
:1048700028FB0B0126510124016E000E0220036E5D
:104880000150F2CF28FBF29E03C0F7FF00019BEC22
:1048900009F00B0128BFF28E286F070ED88027552C
:1048A000296F28CB00F02951016E04E0D890003226
:1048B000012EFCD700A00ED02651080DF35027255D
:1048C000286F416F25CB42FB010E436F0001ABEC1B
:1048D0000EF00B012707BCD7262BB5D7252BAFD75A
:1048E000000109EF25F04BC02AFB4AC029FB49C053
:1048F00028FB48C027FBC6DC02C03BF001C03AF0F1
:104900003BC026FB3AC025FBB3EC15F0D8824BC068
:1049100028FB4AC027FB49C026FB48C025FB03C033
:104920002CFB02C02BFB01C02AFB00C029FB34EC8E
:1049300019F003C028FB02C027FB01C026FB00C002
:1049400025FB03C035FB02C034FB01C033FB00C0B4
:1049500032FB0B01396B386B480E376F850E366FA3
:10496000000170EC1AF003C053F002C052F001C015
:1049700051F000C050F04FC02AFB4EC029FB4DC083
:1049800028FB4CC027FB7EDC02C03DF001C03CF0A0
:104990003DC026FB3CC025FBB3EC15F0D8824FC0D0
:1049A00028FB4EC027FB4DC026FB4CC025FB03C097
:1049B0002CFB02C02BFB01C02AFB00C029FB34ECFE
:1049C00019F003C028FB02C027FB01C026FB00C072
:1049D00025FB03C035FB02C034FB01C033FB00C024
:1049E00032FB0B01396B386B480E376F850E366F13
:1049F000000170EC1AF003C057F002C056F001C07D
:104A000055F000C054F00B01266B0001E4EC0DF0F2
:104A100014D7050E0B01256F320E266F7A0E276F05
:104A20003A0E286F296B010E2A6F0001ECEC10F092
:104A3000060E0B01256F330E266F790E276F390E88
:104A4000286F010E296F2A6B0001ECEC10F0C80EE4
:104A50000B012D6F000175EC0FF00B01286B276B1C
:104A6000000176EC15F0296A01C028F00B01286BD3
:104A7000010E276F000176EC15F02B6A01C02AF0B9
:104A8000010E0B012D6F000175EC0FF0285203E1B0
:104A9000295201E103D0282AD8B4292A020E282459
:104AA0000B01256F000E2920266F2BC029FB2AC081
:104AB00028FB2B6B2A6900017DEC0EF002C003F08D
:104AC00001500B0125270250262326CB29FB25CB9D
:104AD00028FB3AC02AFB00016EEC16F0050E0B0114
:104AE000256F320E266F120E276F3A0E286F010EB9
:104AF000296F2A6F0001ECEC10F0320E0B012D6FC4
:104B0000000175EC0FF0282AD8B4292A020E2824B7
:104B10000B01256F000E2920266F2BC029FB2AC010
:104B200028FB2B6B2A6900017DEC0EF002C003F01C
:104B300001500B0125270250262353C02AFB52C0E7
:104B400029FB51C028FB50C027FB000142EC21F09B
:104B500001C027FB26CB29FB25CB28FB01C02AFB64
:104B60006EEC16F0120E0B01256F320E266F1F0E23
:104B7000276F3A0E286F010E296F2A6F0001ECECA7
:104B800010F0320E0B012D6F000175EC0FF0282A8A
:104B9000D8B4292A020E28240B01256F000E2920E3
:104BA000266F2BC029FB2AC028FB2B6B2A6900012A
:104BB0007DEC0EF002C003F001500B0125270250DE
:104BC000262326CB29FB25CB28FB3CC02AFB000152
:104BD0006EEC16F01F0E0B01256F320E266F2C0E99
:104BE000276F3A0E286F010E296F2A6F0001ECEC37
:104BF00010F0320E0B012D6F000175EC0FF0282A1A
:104C0000D8B4292A020E28240B01256F000E292072
:104C1000266F2BC029FB2AC028FB2B6B2A690001B9
:104C20007DEC0EF002C003F001500B01252702506D
:104C3000262357C02AFB56C029FB55C028FB54C069
:104C400027FB000142EC21F001C027FB26CB29FB0A
:104C500025CB28FB01C02AFB6EEC16F02C0E0B01B5
:104C6000256F320E266F390E276F3A0E286F010E10
:104C7000296F2A6F0001ECEC10F0320E0B012D6F42
:104C8000000175EC0FF0282AD8B4292A020E282436
:104C90000B01256F000E2920266F2BC029FB2AC08F
:104CA00028FB2B6B2A6900017DEC0EF002C003F09B
:104CB00001500B0125270250262326CB29FB25CBAB
:104CC00028FB1EC02AFB00016EEC16F0390E0B010A
:104CD000256F320E266F460E276F3A0E286F010E93
:104CE000296F2A6F0001ECEC10F0320E0B012D6FD2
:104CF000000175EC0FF0282AD8B4292A020E2824C6
:104D00000B01256F000E2920266F2BC029FB2AC01E
:104D100028FB2B6B2A6900017DEC0EF002C003F02A
:104D200001500B0125270250262326CB29FB25CB3A
:104D300028FB1FC02AFB00016EEC16F0460E0B018B
:104D4000256F320E266F530E276F3A0E286F010E15
:104D5000296F2A6F0001ECEC10F0320E0B012D6F61
:104D6000000175EC0FF0282AD8B4292A020E282455
:104D70000B01256F000E2920266F2BC029FB2AC0AE
:104D800028FB2B6B2A6900017DEC0EF002C003F0BA
:104D900001500B0125270250262326CB29FB25CBCA
:104DA00028FB22C02AFB00016EEC16F0460E0B0118
:104DB000256F320E266F530E276F3A0E286F010EA5
:104DC000296F2A6F0001ECEC10F0320E0B012D6FF1
:104DD000000175EC0FF0282AD8B4292A020E2824E5
:104DE0000B01256F000E2920266F2BC029FB2AC03E
:104DF00028FB2B6B2A6900017DEC0EF002C003F04A
:104E000001500B0125270250262326CB29FB25CB59
:104E100028FB23C02AFB00016EEC16F0530E0B0199
:104E2000256F320E266F600E276F3A0E286F010E27
:104E3000296F2A6F0001ECEC10F0320E0B012D6F80
:104E4000000175EC0FF0282AD8B4292A020E282474
:104E50000B01256F000E2920266F2BC029FB2AC0CD
:104E600028FB2B6B2A6900017DEC0EF002C003F0D9
:104E700001500B0125270250262326CB29FB25CBE9
:104E800028FB25C02AFB00016EEC16F0600E0B011A
:104E9000256F320E266F7A0E276F3A0E286F010E9D
:104EA000296F2A6F0001ECEC10F0320E0B012D6F10
:104EB000000175EC0FF0295203E12850FE0807E2CB
:104EC0002A2AD8B42B2AFF0E285E000E295A640E17
:104ED0000B012D6F000175EC0FF00B01296B286B96
:104EE00028C02AFB00016EEC16F00B01296B010EA5
:104EF000286F2AC02AFB00016EEC16F04F6A4E6A3A
:104F00004D6A4C6A4B6A4A6A496A486A57EF42F0EE
:104F1000F86AD09E078E700ED36ED350B8960C0EE2
:104F2000AF6EA20EAC6E900EAB6E296A286A2B6A29
:104F30002A6A0B01246B236BC150C00B0F09C16E91
:104F4000070EB46E17D115008153495354454D4196
:104F50002045434F4E4F4D495A41444F5200140192
:104F600010436F6E6669677572617220536973745E
:104F7000656D613F00130135486F72612F466563AF
:104F800068612041637475616C3A00080150446F98
:104F90006D696E676F000601704C756E6573000772
:104FA00001904D6172746573000A01B04D696572BC
:104FB000636F6C6573000701D04A75657665730091
:104FC0000801F0566965726E65730007021053613F
:104FD0006261646F000302305369000302504E6F38
:104FE00000050270486F72610006029046656368B2
:104FF00061000F02B5414A555354452044452048AD
:105000004F5241001002E0414A5553544520444557
:10501000204645434841000E0305414A5553544537
:1050200020454550524F4D00030375504D000B0372
:105030008545737461626C6563657200060405449E
:1050400061746F73000B0420477561726461646F53
:105050007321000F044053697374656D61206C699E
:1050600073746F21000E0465496E69636961722073
:1050700041686F7261001404A04465736561206328
:105080006F6E73756C746172206C6F73001504C061
:10509000636F6E73756D6F732061206C6120666540
:1050A0006368613F000704E0566F6C766572000C20
:1050B000050553656C656363696F6E617200110568
:1050C000205449504F20444520434F4E54524F4C9A
:1050D0003A00130540486162696C6974617220632B
:1050E0006F6E74726F6C3F00130565436F6E73755E
:1050F0006D6F204D6178696D6F284C293A0012055B
:10510000854C494D49544520414C43414E5A4144F8
:105110004F21000505C04C65657200150480434FA2
:105120004E53554C544120444520434F4E53554D0A
:105130004F53000705D0426F72726172000605E09E
:1051400053616C6972000405F02E2E2E000303607B
:10515000414D000B0B184361706163696461643AEF
:10516000000E03454E2F4120202F203430393620A9
:1051700042000000000EF86E4F0EF76E460EF66EFF
:105180000900F550006E000A13E00900F550016EA9
:10519000E8BE05D00F0BEA6E0900F5CFE9FF01BCB0
:1051A000090001AC0900F5CFEEFF004EE9D7F9D7B1
:1051B000F86AC00EF212F288F086F088F28A9D80BA
:1051C000A80ED56E830ECD6E950EB16EC150C00B7C
:1051D0000E09C16EC050C00B0209C06EC09EC280D5
:1051E000636A626A616A606A6B6A6A6A696A686A43
:1051F000736A726A716A706A376A366AD76AD66A7F
:10520000CF6ACE6AB36AB26A94928B9294948B946A
:10521000010E256F00012BEF0EF00B01266B000134
:10522000E4EC0DF021EF0FF0080E0B01256FFA0EE4
:105230002D6F000175EC0FF00B01252FF8D7266BB1
:105240000001E4EC0DF0DFEF0FF00B01256B266B96
:105250007F0E276F3F0E286F296B010E2A6F00010A
:10526000ECEC10F0010E0B01256F266F7E0E276F00
:105270003E0E286F296B010E2A6F0001ECEC10F036
:10528000050E0B01256F266F286B810E276F010E0F
:10529000296F2A6F00014DEC11F0080E0B01256FEC
:1052A000140E266F010E286F100E276F010E296F46
:1052B0002A6F00014DEC11F0050E0B01256F250E34
:1052C000266F3D0E276F3A0E286F010E296F2A6F49
:1052D0000001ECEC10F0410E0B01256F250E266F3E
:1052E000780E276F3A0E286F010E296F2A6F000182
:1052F000ECEC10F01C0E0B01256F2C0E266F020E2D
:10530000286F300E276F010E296F2A6B00014DECBC
:1053100011F0560E0B01256F2C0E266F020E286F12
:10532000500E276F010E296F2A6B00014DEC11F012
:10533000060E0B01256F260E266F3C0E276F390EC9
:10534000286F296B2A6B0001ECEC10F0000E016E47
:10535000C250C30B0110C26E0C0E006E002EFED7A1
:1053600000D00000C282C2B2FED7C4CF26F0640EC5
:105370000B012D6F000175EC0FF02650F0080CE2C8
:10538000C282C2B2FED7C4CF26F0320E0B012D6FFF
:10539000000175EC0FF0F1D72650C30805E2265046
:1053A000E00802E37AD078D02650A508D8B074D0AF
:1053B0002650B808D8A070D0060E0B01256F260E17
:1053C000266F3C0E276F390E286F296B010E2A6F4E
:1053D0000001ECEC10F0420E0B01256F260E266F3B
:1053E000770E276F390E286F296B2A6B0001ECECC2
:1053F00010F0640E0B012D6F000175EC0FF0C282EE
:10540000C2B2FED7C4CF26F01A0E006E002EFED711
:1054100000002650F0080CE2C282C2B2FED7C4CF10
:1054200026F0320E0B012D6F000175EC0FF0F1D755
:105430002650C30805E22650E00802E30EEF3BF0D9
:105440002650730828E22650860825E3420E0B01F9
:10545000256F260E266F770E276F390E286F296B62
:10546000010E2A6F0001ECEC10F0060E0B01256F07
:10547000260E266F3C0E276F390E286F296B2A6B7C
:105480000001ECEC10F0320E0B012D6F000175ECF9
:105490000FF068D701D066D765D70B01266B0001E6
:1054A000E4EC0DF00B01256B266B7F0E276F3F0E92
:1054B000286F296B010E2A6F0001ECEC10F0010E31
:1054C0000B01256F266F7E0E276F3E0E286F296B0E
:1054D000010E2A6F0001ECEC10F0050E0B01256F98
:1054E000266F010E286F350E276F010E296F2A6F68
:1054F00000014DEC11F03FEC12F0050E0B01246F92
:10550000A00E236F1EC025FB010E266F000128ECA4
:1055100013F03A0E0B01326F000118EC13F01FC0AC
:1055200025FB010E0B01266F000128EC13F03A0E4B
:105530000B01326F000118EC13F020C025FB010EA7
:105540000B01266F000128EC13F0200E0B01326FC7
:10555000000118EC13F017CB32FB18EC13F04D0ED2
:105560000B01326F000118EC13F0050E0B01256FD3
:105570000F0E266F050E286FA00E276F010E296FE4
:105580002A6F00014DEC11F0050E0B01246FA00EE7
:10559000236F22C025FB010E266F000128EC13F0BB
:1055A0002F0E0B01326F000118EC13F023C025FB06
:1055B000010E0B01266F000128EC13F02F0E0B01DA
:1055C000326F000118EC13F025C025FB010E0B0112
:1055D000266F000128EC13F0050E0B01256F190E44
:1055E000266F050E286FA00E276F010E296F2A6FF8
:1055F00000014DEC11F0242C0FD03C0E0B01256F57
:10560000190E266F010E286F500E276F010E296F9D
:105610002A6F00014DEC11F0245002080FE13C0EFE
:105620000B01256F190E266F010E286F700E276F64
:10563000010E296F2A6F00014DEC11F02450030870
:105640000FE13C0E0B01256F190E266F010E286F1E
:10565000900E276F010E296F2A6F00014DEC11F09B
:10566000245004080FE13C0E0B01256F190E266F24
:10567000010E286FB00E276F010E296F2A6F0001EF
:105680004DEC11F0245005080FE13C0E0B01256F85
:10569000190E266F010E286FD00E276F010E296F8D
:1056A0002A6F00014DEC11F0245006080FE13C0E6A
:1056B0000B01256F190E266F010E286FF00E276F54
:1056C000010E296F2A6F00014DEC11F024500708DC
:1056D0000FE13C0E0B01256F190E266F020E286F8D
:1056E000100E276F010E296F2A6F00014DEC11F08B
:1056F000080E0B01256F250E266F2B0E276F3A0E15
:10570000286F010E296F2A6F0001ECEC10F02E0EAD
:105710000B01256F250E266F510E276F3A0E286F4D
:10572000010E296F2A6F0001ECEC10F0540E0B01F2
:10573000256F250E266F770E276F3A0E286F010E04
:10574000296F2A6F0001ECEC10F086EC13F0090EC3
:105750000B01256F260E266F2A0E276F390E286F34
:10576000296B2A6B0001ECEC10F00E0E0B01256F7B
:105770002D0E266F020E286F700E276F010E296FF7
:105780002A6B00014DEC11F0310E0B01256F2D0E2F
:10579000266F020E286F900E276F010E296F2A6B5D
:1057A00000014DEC11F0C282C2B2FED7C4CF26F088
:1057B000320E0B012D6F000175EC0FF02650E6083C
:1057C0006EE23FEC12F0320E0B012D6F000175EC12
:1057D0000FF02150205C58E0050E0B01256F0F0ED5
:1057E000266F050E286FA00E276F010E296F2A6BFA
:1057F00000014DEC11F0050E0B01246FA00E236F7C
:105800001EC025FB010E266F000128EC13F03A0E96
:105810000B01326F000118EC13F01FC025FB010EC5
:105820000B01266F000128EC13F03A0E0B01326FCA
:10583000000118EC13F020C025FB010E0B01266FB0
:10584000000128EC13F0200E0B01326F000118EC60
:1058500013F017CB32FB18EC13F04D0E0B01326F27
:10586000000118EC13F0050E0B01256F0F0E266FCB
:10587000050E286FA00E276F010E296F2A6F0001F9
:105880004DEC11F020C021F0C282C2B2FED7C4CFCD
:1058900026F01A0E006E002EFED700008FD726507D
:1058A000C30805E22650E00802E308D106D12650DD
:1058B000A508D8B002D12650B808D8A0FED0090E4D
:1058C0000B01256F260E266F2A0E276F390E286FC3
:1058D000296B010E2A6F0001ECEC10F02F0E0B016A
:1058E000256F260E266F500E276F390E286F296BF5
:1058F0002A6B0001ECEC10F0550E0B01256F260E03
:10590000266F760E276F390E286F296B010E2A6FCE
:105910000001ECEC10F0020E0B01256FFA0E2D6F5A
:10592000000175EC0FF00B01252FF8D7C282C2B22F
:10593000FED7C4CF26F0320E2D6F000175EC0FF0AC
:105940002650F0080CE2C282C2B2FED7C4CF26F0C5
:10595000320E0B012D6F000175EC0FF0F1D72650C0
:10596000C30805E22650E00802E309EF31F02650B3
:10597000730837E22650860834E3090E0B01256FC1
:10598000260E266F2A0E276F390E286F296B2A6B79
:105990000001ECEC10F02F0E0B01256F260E266F88
:1059A000500E276F390E286F296B010E2A6F0001E8
:1059B000ECEC10F0550E0B01256F260E266F760EBF
:1059C000276F390E286F296B010E2A6F0001ECEC4E
:1059D00010F0320E0B012D6F000175EC0FF0E3D6C5
:1059E0006CD02650A508D8B068D02650B80865E31A
:1059F000090E0B01256F260E266F2A0E276F390E12
:105A0000286F296B010E2A6F0001ECEC10F02F0EAD
:105A10000B01256F260E266F500E276F390E286F4B
:105A2000296B010E2A6F0001ECEC10F0550E0B01F2
:105A3000256F260E266F760E276F390E286F296B7D
:105A40002A6B0001ECEC10F0640E0B012D6F0001CD
:105A500075EC0FF0C282C2B2FED7C4CF26F01A0E88
:105A6000006E002EFED700002650F0080CE2C28225
:105A7000C2B2FED7C4CF26F0320E0B012D6F00014B
:105A800075EC0FF0F1D72650C30806E22650E00867
:105A900003E327EF35F011D02650730805E22650B6
:105AA000860802E30CD709D02650A50805E2265047
:105AB000B80802E378D601D076D675D60B01266BEE
:105AC0000001E4EC0DF00B01256B266B7F0E276FB8
:105AD0003F0E286F296B010E2A6F0001ECEC10F0CD
